{
    "_format": "hh-sol-artifact-1",
    "contractName": "MyNFT",
    "sourceName": "contracts/MyNFT.sol",
    "abi": [
        {
            "inputs": [],
            "stateMutability": "nonpayable",
            "type": "constructor"
        },
        {
            "anonymous": false,
            "inputs": [
                {
                    "indexed": true,
                    "internalType": "address",
                    "name": "owner",
                    "type": "address"
                },
                {
                    "indexed": true,
                    "internalType": "address",
                    "name": "approved",
                    "type": "address"
                },
                {
                    "indexed": true,
                    "internalType": "uint256",
                    "name": "tokenId",
                    "type": "uint256"
                }
            ],
            "name": "Approval",
            "type": "event"
        },
        {
            "anonymous": false,
            "inputs": [
                {
                    "indexed": true,
                    "internalType": "address",
                    "name": "owner",
                    "type": "address"
                },
                {
                    "indexed": true,
                    "internalType": "address",
                    "name": "operator",
                    "type": "address"
                },
                {
                    "indexed": false,
                    "internalType": "bool",
                    "name": "approved",
                    "type": "bool"
                }
            ],
            "name": "ApprovalForAll",
            "type": "event"
        },
        {
            "anonymous": false,
            "inputs": [
                {
                    "indexed": false,
                    "internalType": "uint256",
                    "name": "_fromTokenId",
                    "type": "uint256"
                },
                {
                    "indexed": false,
                    "internalType": "uint256",
                    "name": "_toTokenId",
                    "type": "uint256"
                }
            ],
            "name": "BatchMetadataUpdate",
            "type": "event"
        },
        {
            "anonymous": false,
            "inputs": [
                {
                    "indexed": false,
                    "internalType": "uint256",
                    "name": "_tokenId",
                    "type": "uint256"
                }
            ],
            "name": "MetadataUpdate",
            "type": "event"
        },
        {
            "anonymous": false,
            "inputs": [
                {
                    "indexed": true,
                    "internalType": "address",
                    "name": "previousOwner",
                    "type": "address"
                },
                {
                    "indexed": true,
                    "internalType": "address",
                    "name": "newOwner",
                    "type": "address"
                }
            ],
            "name": "OwnershipTransferred",
            "type": "event"
        },
        {
            "anonymous": false,
            "inputs": [
                {
                    "indexed": true,
                    "internalType": "address",
                    "name": "from",
                    "type": "address"
                },
                {
                    "indexed": true,
                    "internalType": "address",
                    "name": "to",
                    "type": "address"
                },
                {
                    "indexed": true,
                    "internalType": "uint256",
                    "name": "tokenId",
                    "type": "uint256"
                }
            ],
            "name": "Transfer",
            "type": "event"
        },
        {
            "inputs": [
                {
                    "internalType": "address",
                    "name": "to",
                    "type": "address"
                },
                {
                    "internalType": "uint256",
                    "name": "tokenId",
                    "type": "uint256"
                }
            ],
            "name": "approve",
            "outputs": [],
            "stateMutability": "nonpayable",
            "type": "function"
        },
        {
            "inputs": [
                {
                    "internalType": "address",
                    "name": "owner",
                    "type": "address"
                }
            ],
            "name": "balanceOf",
            "outputs": [
                {
                    "internalType": "uint256",
                    "name": "",
                    "type": "uint256"
                }
            ],
            "stateMutability": "view",
            "type": "function"
        },
        {
            "inputs": [
                {
                    "internalType": "uint256",
                    "name": "",
                    "type": "uint256"
                }
            ],
            "name": "gameAssets",
            "outputs": [
                {
                    "internalType": "string",
                    "name": "name",
                    "type": "string"
                },
                {
                    "internalType": "uint256",
                    "name": "level",
                    "type": "uint256"
                },
                {
                    "internalType": "string",
                    "name": "assetType",
                    "type": "string"
                }
            ],
            "stateMutability": "view",
            "type": "function"
        },
        {
            "inputs": [
                {
                    "internalType": "uint256",
                    "name": "tokenId",
                    "type": "uint256"
                }
            ],
            "name": "getApproved",
            "outputs": [
                {
                    "internalType": "address",
                    "name": "",
                    "type": "address"
                }
            ],
            "stateMutability": "view",
            "type": "function"
        },
        {
            "inputs": [
                {
                    "internalType": "uint256",
                    "name": "tokenId",
                    "type": "uint256"
                }
            ],
            "name": "getGameAsset",
            "outputs": [
                {
                    "internalType": "string",
                    "name": "name",
                    "type": "string"
                },
                {
                    "internalType": "uint256",
                    "name": "level",
                    "type": "uint256"
                },
                {
                    "internalType": "string",
                    "name": "assetType",
                    "type": "string"
                }
            ],
            "stateMutability": "view",
            "type": "function"
        },
        {
            "inputs": [
                {
                    "internalType": "address",
                    "name": "owner",
                    "type": "address"
                },
                {
                    "internalType": "address",
                    "name": "operator",
                    "type": "address"
                }
            ],
            "name": "isApprovedForAll",
            "outputs": [
                {
                    "internalType": "bool",
                    "name": "",
                    "type": "bool"
                }
            ],
            "stateMutability": "view",
            "type": "function"
        },
        {
            "inputs": [
                {
                    "internalType": "address",
                    "name": "recipient",
                    "type": "address"
                },
                {
                    "internalType": "string",
                    "name": "uri",
                    "type": "string"
                },
                {
                    "internalType": "string",
                    "name": "name",
                    "type": "string"
                },
                {
                    "internalType": "uint256",
                    "name": "level",
                    "type": "uint256"
                },
                {
                    "internalType": "string",
                    "name": "assetType",
                    "type": "string"
                }
            ],
            "name": "mintNFT",
            "outputs": [
                {
                    "internalType": "uint256",
                    "name": "",
                    "type": "uint256"
                }
            ],
            "stateMutability": "nonpayable",
            "type": "function"
        },
        {
            "inputs": [],
            "name": "name",
            "outputs": [
                {
                    "internalType": "string",
                    "name": "",
                    "type": "string"
                }
            ],
            "stateMutability": "view",
            "type": "function"
        },
        {
            "inputs": [],
            "name": "owner",
            "outputs": [
                {
                    "internalType": "address",
                    "name": "",
                    "type": "address"
                }
            ],
            "stateMutability": "view",
            "type": "function"
        },
        {
            "inputs": [
                {
                    "internalType": "uint256",
                    "name": "tokenId",
                    "type": "uint256"
                }
            ],
            "name": "ownerOf",
            "outputs": [
                {
                    "internalType": "address",
                    "name": "",
                    "type": "address"
                }
            ],
            "stateMutability": "view",
            "type": "function"
        },
        {
            "inputs": [],
            "name": "renounceOwnership",
            "outputs": [],
            "stateMutability": "nonpayable",
            "type": "function"
        },
        {
            "inputs": [
                {
                    "internalType": "address",
                    "name": "from",
                    "type": "address"
                },
                {
                    "internalType": "address",
                    "name": "to",
                    "type": "address"
                },
                {
                    "internalType": "uint256",
                    "name": "tokenId",
                    "type": "uint256"
                }
            ],
            "name": "safeTransferFrom",
            "outputs": [],
            "stateMutability": "nonpayable",
            "type": "function"
        },
        {
            "inputs": [
                {
                    "internalType": "address",
                    "name": "from",
                    "type": "address"
                },
                {
                    "internalType": "address",
                    "name": "to",
                    "type": "address"
                },
                {
                    "internalType": "uint256",
                    "name": "tokenId",
                    "type": "uint256"
                },
                {
                    "internalType": "bytes",
                    "name": "data",
                    "type": "bytes"
                }
            ],
            "name": "safeTransferFrom",
            "outputs": [],
            "stateMutability": "nonpayable",
            "type": "function"
        },
        {
            "inputs": [
                {
                    "internalType": "address",
                    "name": "operator",
                    "type": "address"
                },
                {
                    "internalType": "bool",
                    "name": "approved",
                    "type": "bool"
                }
            ],
            "name": "setApprovalForAll",
            "outputs": [],
            "stateMutability": "nonpayable",
            "type": "function"
        },
        {
            "inputs": [
                {
                    "internalType": "bytes4",
                    "name": "interfaceId",
                    "type": "bytes4"
                }
            ],
            "name": "supportsInterface",
            "outputs": [
                {
                    "internalType": "bool",
                    "name": "",
                    "type": "bool"
                }
            ],
            "stateMutability": "view",
            "type": "function"
        },
        {
            "inputs": [],
            "name": "symbol",
            "outputs": [
                {
                    "internalType": "string",
                    "name": "",
                    "type": "string"
                }
            ],
            "stateMutability": "view",
            "type": "function"
        },
        {
            "inputs": [
                {
                    "internalType": "uint256",
                    "name": "tokenId",
                    "type": "uint256"
                }
            ],
            "name": "tokenURI",
            "outputs": [
                {
                    "internalType": "string",
                    "name": "",
                    "type": "string"
                }
            ],
            "stateMutability": "view",
            "type": "function"
        },
        {
            "inputs": [
                {
                    "internalType": "address",
                    "name": "from",
                    "type": "address"
                },
                {
                    "internalType": "address",
                    "name": "to",
                    "type": "address"
                },
                {
                    "internalType": "uint256",
                    "name": "tokenId",
                    "type": "uint256"
                }
            ],
            "name": "transferFrom",
            "outputs": [],
            "stateMutability": "nonpayable",
            "type": "function"
        },
        {
            "inputs": [
                {
                    "internalType": "address",
                    "name": "newOwner",
                    "type": "address"
                }
            ],
            "name": "transferOwnership",
            "outputs": [],
            "stateMutability": "nonpayable",
            "type": "function"
        }
    ],
    "bytecode": "0x60806040523480156200001157600080fd5b506040518060400160405280600581526020017f4d794e46540000000000000000000000000000000000000000000000000000008152506040518060400160405280600481526020017f4d4e46540000000000000000000000000000000000000000000000000000000081525081600090816200008f919062000412565b508060019081620000a1919062000412565b505050620000c4620000b8620000ca60201b60201c565b620000d260201b60201c565b620004f9565b600033905090565b6000600760009054906101000a900473ffffffffffffffffffffffffffffffffffffffff16905081600760006101000a81548173ffffffffffffffffffffffffffffffffffffffff021916908373ffffffffffffffffffffffffffffffffffffffff1602179055508173ffffffffffffffffffffffffffffffffffffffff168173ffffffffffffffffffffffffffffffffffffffff167f8be0079c531659141344cd1fd0a4f28419497f9722a3daafe3b4186f6b6457e060405160405180910390a35050565b600081519050919050565b7f4e487b7100000000000000000000000000000000000000000000000000000000600052604160045260246000fd5b7f4e487b7100000000000000000000000000000000000000000000000000000000600052602260045260246000fd5b600060028204905060018216806200021a57607f821691505b60208210810362000230576200022f620001d2565b5b50919050565b60008190508160005260206000209050919050565b60006020601f8301049050919050565b600082821b905092915050565b6000600883026200029a7fffffffffffffffffffffffffffffffffffffffffffffffffffffffffffffffff826200025b565b620002a686836200025b565b95508019841693508086168417925050509392505050565b6000819050919050565b6000819050919050565b6000620002f3620002ed620002e784620002be565b620002c8565b620002be565b9050919050565b6000819050919050565b6200030f83620002d2565b620003276200031e82620002fa565b84845462000268565b825550505050565b600090565b6200033e6200032f565b6200034b81848462000304565b505050565b5b8181101562000373576200036760008262000334565b60018101905062000351565b5050565b601f821115620003c2576200038c8162000236565b62000397846200024b565b81016020851015620003a7578190505b620003bf620003b6856200024b565b83018262000350565b50505b505050565b600082821c905092915050565b6000620003e760001984600802620003c7565b1980831691505092915050565b6000620004028383620003d4565b9150826002028217905092915050565b6200041d8262000198565b67ffffffffffffffff811115620004395762000438620001a3565b5b62000445825462000201565b6200045282828562000377565b600060209050601f8311600181146200048a576000841562000475578287015190505b620004818582620003f4565b865550620004f1565b601f1984166200049a8662000236565b60005b82811015620004c4578489015182556001820191506020850194506020810190506200049d565b86831015620004e45784890151620004e0601f891682620003d4565b8355505b6001600288020188555050505b505050505050565b61329f80620005096000396000f3fe608060405234801561001057600080fd5b50600436106101215760003560e01c806370a08231116100ad578063b88d4fde11610071578063b88d4fde1461031c578063c87b56dd14610338578063e985e9c514610368578063ed6dc97d14610398578063f2fde38b146103ca57610121565b806370a082311461028a578063715018a6146102ba5780638da5cb5b146102c457806395d89b41146102e2578063a22cb4651461030057610121565b806323b872dd116100f457806323b872dd146101c057806342842e0e146101dc5780635001f033146101f85780635cea5dc3146102285780636352211e1461025a57610121565b806301ffc9a71461012657806306fdde0314610156578063081812fc14610174578063095ea7b3146101a4575b600080fd5b610140600480360381019061013b9190611fd8565b6103e6565b60405161014d9190612020565b60405180910390f35b61015e610447565b60405161016b91906120cb565b60405180910390f35b61018e60048036038101906101899190612123565b6104d9565b60405161019b9190612191565b60405180910390f35b6101be60048036038101906101b991906121d8565b61051f565b005b6101da60048036038101906101d59190612218565b610636565b005b6101f660048036038101906101f19190612218565b610696565b005b610212600480360381019061020d91906123a0565b6106b6565b60405161021f919061247e565b60405180910390f35b610242600480360381019061023d9190612123565b610766565b60405161025193929190612499565b60405180910390f35b610274600480360381019061026f9190612123565b6108a0565b6040516102819190612191565b60405180910390f35b6102a4600480360381019061029f91906124de565b610926565b6040516102b1919061247e565b60405180910390f35b6102c26109dd565b005b6102cc6109f1565b6040516102d99190612191565b60405180910390f35b6102ea610a1b565b6040516102f791906120cb565b60405180910390f35b61031a60048036038101906103159190612537565b610aad565b005b61033660048036038101906103319190612618565b610ac3565b005b610352600480360381019061034d9190612123565b610b25565b60405161035f91906120cb565b60405180910390f35b610382600480360381019061037d919061269b565b610c37565b60405161038f9190612020565b60405180910390f35b6103b260048036038101906103ad9190612123565b610ccb565b6040516103c193929190612499565b60405180910390f35b6103e460048036038101906103df91906124de565b610e3e565b005b6000634906490660e01b7bffffffffffffffffffffffffffffffffffffffffffffffffffffffff1916827bffffffffffffffffffffffffffffffffffffffffffffffffffffffff19161480610440575061043f82610ec1565b5b9050919050565b6060600080546104569061270a565b80601f01602080910402602001604051908101604052809291908181526020018280546104829061270a565b80156104cf5780601f106104a4576101008083540402835291602001916104cf565b820191906000526020600020905b8154815290600101906020018083116104b257829003601f168201915b5050505050905090565b60006104e482610fa3565b6004600083815260200190815260200160002060009054906101000a900473ffffffffffffffffffffffffffffffffffffffff169050919050565b600061052a826108a0565b90508073ffffffffffffffffffffffffffffffffffffffff168373ffffffffffffffffffffffffffffffffffffffff160361059a576040517f08c379a0000000000000000000000000000000000000000000000000000000008152600401610591906127ad565b60405180910390fd5b8073ffffffffffffffffffffffffffffffffffffffff166105b9610fee565b73ffffffffffffffffffffffffffffffffffffffff1614806105e857506105e7816105e2610fee565b610c37565b5b610627576040517f08c379a000000000000000000000000000000000000000000000000000000000815260040161061e9061283f565b60405180910390fd5b6106318383610ff6565b505050565b610647610641610fee565b826110af565b610686576040517f08c379a000000000000000000000000000000000000000000000000000000000815260040161067d906128d1565b60405180910390fd5b610691838383611144565b505050565b6106b183838360405180602001604052806000815250610ac3565b505050565b60006106c061143d565b6106ca60086114bb565b60006106d660086114d1565b90506106e287826114df565b6106ec81876116fc565b60006040518060600160405280878152602001868152602001858152509050806009600084815260200190815260200160002060008201518160000190816107349190612a9d565b506020820151816001015560408201518160020190816107549190612a9d565b50905050819250505095945050505050565b60096020528060005260406000206000915090508060000180546107899061270a565b80601f01602080910402602001604051908101604052809291908181526020018280546107b59061270a565b80156108025780601f106107d757610100808354040283529160200191610802565b820191906000526020600020905b8154815290600101906020018083116107e557829003601f168201915b50505050509080600101549080600201805461081d9061270a565b80601f01602080910402602001604051908101604052809291908181526020018280546108499061270a565b80156108965780601f1061086b57610100808354040283529160200191610896565b820191906000526020600020905b81548152906001019060200180831161087957829003601f168201915b5050505050905083565b6000806108ac836117a0565b9050600073ffffffffffffffffffffffffffffffffffffffff168173ffffffffffffffffffffffffffffffffffffffff160361091d576040517f08c379a000000000000000000000000000000000000000000000000000000000815260040161091490612bbb565b60405180910390fd5b80915050919050565b60008073ffffffffffffffffffffffffffffffffffffffff168273ffffffffffffffffffffffffffffffffffffffff1603610996576040517f08c379a000000000000000000000000000000000000000000000000000000000815260040161098d90612c4d565b60405180910390fd5b600360008373ffffffffffffffffffffffffffffffffffffffff1673ffffffffffffffffffffffffffffffffffffffff168152602001908152602001600020549050919050565b6109e561143d565b6109ef60006117dd565b565b6000600760009054906101000a900473ffffffffffffffffffffffffffffffffffffffff16905090565b606060018054610a2a9061270a565b80601f0160208091040260200160405190810160405280929190818152602001828054610a569061270a565b8015610aa35780601f10610a7857610100808354040283529160200191610aa3565b820191906000526020600020905b815481529060010190602001808311610a8657829003601f168201915b5050505050905090565b610abf610ab8610fee565b83836118a3565b5050565b610ad4610ace610fee565b836110af565b610b13576040517f08c379a0000000000000000000000000000000000000000000000000000000008152600401610b0a906128d1565b60405180910390fd5b610b1f84848484611a0f565b50505050565b6060610b3082610fa3565b6000600660008481526020019081526020016000208054610b509061270a565b80601f0160208091040260200160405190810160405280929190818152602001828054610b7c9061270a565b8015610bc95780601f10610b9e57610100808354040283529160200191610bc9565b820191906000526020600020905b815481529060010190602001808311610bac57829003601f168201915b505050505090506000610bda611a6b565b90506000815103610bef578192505050610c32565b600082511115610c24578082604051602001610c0c929190612ca9565b60405160208183030381529060405292505050610c32565b610c2d84611a82565b925050505b919050565b6000600560008473ffffffffffffffffffffffffffffffffffffffff1673ffffffffffffffffffffffffffffffffffffffff16815260200190815260200160002060008373ffffffffffffffffffffffffffffffffffffffff1673ffffffffffffffffffffffffffffffffffffffff16815260200190815260200160002060009054906101000a900460ff16905092915050565b606060006060600060096000868152602001908152602001600020604051806060016040529081600082018054610d019061270a565b80601f0160208091040260200160405190810160405280929190818152602001828054610d2d9061270a565b8015610d7a5780601f10610d4f57610100808354040283529160200191610d7a565b820191906000526020600020905b815481529060010190602001808311610d5d57829003601f168201915b5050505050815260200160018201548152602001600282018054610d9d9061270a565b80601f0160208091040260200160405190810160405280929190818152602001828054610dc99061270a565b8015610e165780601f10610deb57610100808354040283529160200191610e16565b820191906000526020600020905b815481529060010190602001808311610df957829003601f168201915b5050505050815250509050806000015181602001518260400151935093509350509193909250565b610e4661143d565b600073ffffffffffffffffffffffffffffffffffffffff168173ffffffffffffffffffffffffffffffffffffffff1603610eb5576040517f08c379a0000000000000000000000000000000000000000000000000000000008152600401610eac90612d3f565b60405180910390fd5b610ebe816117dd565b50565b60007f80ac58cd000000000000000000000000000000000000000000000000000000007bffffffffffffffffffffffffffffffffffffffffffffffffffffffff1916827bffffffffffffffffffffffffffffffffffffffffffffffffffffffff19161480610f8c57507f5b5e139f000000000000000000000000000000000000000000000000000000007bffffffffffffffffffffffffffffffffffffffffffffffffffffffff1916827bffffffffffffffffffffffffffffffffffffffffffffffffffffffff1916145b80610f9c5750610f9b82611aea565b5b9050919050565b610fac81611b54565b610feb576040517f08c379a0000000000000000000000000000000000000000000000000000000008152600401610fe290612bbb565b60405180910390fd5b50565b600033905090565b816004600083815260200190815260200160002060006101000a81548173ffffffffffffffffffffffffffffffffffffffff021916908373ffffffffffffffffffffffffffffffffffffffff160217905550808273ffffffffffffffffffffffffffffffffffffffff16611069836108a0565b73ffffffffffffffffffffffffffffffffffffffff167f8c5be1e5ebec7d5bd14f71427d1e84f3dd0314c0f7b2291e5b200ac8c7c3b92560405160405180910390a45050565b6000806110bb836108a0565b90508073ffffffffffffffffffffffffffffffffffffffff168473ffffffffffffffffffffffffffffffffffffffff1614806110fd57506110fc8185610c37565b5b8061113b57508373ffffffffffffffffffffffffffffffffffffffff16611123846104d9565b73ffffffffffffffffffffffffffffffffffffffff16145b91505092915050565b8273ffffffffffffffffffffffffffffffffffffffff16611164826108a0565b73ffffffffffffffffffffffffffffffffffffffff16146111ba576040517f08c379a00000000000000000000000000000000000000000000000000000000081526004016111b190612dd1565b60405180910390fd5b600073ffffffffffffffffffffffffffffffffffffffff168273ffffffffffffffffffffffffffffffffffffffff1603611229576040517f08c379a000000000000000000000000000000000000000000000000000000000815260040161122090612e63565b60405180910390fd5b6112368383836001611b95565b8273ffffffffffffffffffffffffffffffffffffffff16611256826108a0565b73ffffffffffffffffffffffffffffffffffffffff16146112ac576040517f08c379a00000000000000000000000000000000000000000000000000000000081526004016112a390612dd1565b60405180910390fd5b6004600082815260200190815260200160002060006101000a81549073ffffffffffffffffffffffffffffffffffffffff02191690556001600360008573ffffffffffffffffffffffffffffffffffffffff1673ffffffffffffffffffffffffffffffffffffffff168152602001908152602001600020600082825403925050819055506001600360008473ffffffffffffffffffffffffffffffffffffffff1673ffffffffffffffffffffffffffffffffffffffff16815260200190815260200160002060008282540192505081905550816002600083815260200190815260200160002060006101000a81548173ffffffffffffffffffffffffffffffffffffffff021916908373ffffffffffffffffffffffffffffffffffffffff160217905550808273ffffffffffffffffffffffffffffffffffffffff168473ffffffffffffffffffffffffffffffffffffffff167fddf252ad1be2c89b69c2b068fc378daa952ba7f163c4a11628f55a4df523b3ef60405160405180910390a46114388383836001611b9b565b505050565b611445610fee565b73ffffffffffffffffffffffffffffffffffffffff166114636109f1565b73ffffffffffffffffffffffffffffffffffffffff16146114b9576040517f08c379a00000000000000000000000000000000000000000000000000000000081526004016114b090612ecf565b60405180910390fd5b565b6001816000016000828254019250508190555050565b600081600001549050919050565b600073ffffffffffffffffffffffffffffffffffffffff168273ffffffffffffffffffffffffffffffffffffffff160361154e576040517f08c379a000000000000000000000000000000000000000000000000000000000815260040161154590612f3b565b60405180910390fd5b61155781611b54565b15611597576040517f08c379a000000000000000000000000000000000000000000000000000000000815260040161158e90612fa7565b60405180910390fd5b6115a5600083836001611b95565b6115ae81611b54565b156115ee576040517f08c379a00000000000000000000000000000000000000000000000000000000081526004016115e590612fa7565b60405180910390fd5b6001600360008473ffffffffffffffffffffffffffffffffffffffff1673ffffffffffffffffffffffffffffffffffffffff16815260200190815260200160002060008282540192505081905550816002600083815260200190815260200160002060006101000a81548173ffffffffffffffffffffffffffffffffffffffff021916908373ffffffffffffffffffffffffffffffffffffffff160217905550808273ffffffffffffffffffffffffffffffffffffffff16600073ffffffffffffffffffffffffffffffffffffffff167fddf252ad1be2c89b69c2b068fc378daa952ba7f163c4a11628f55a4df523b3ef60405160405180910390a46116f8600083836001611b9b565b5050565b61170582611b54565b611744576040517f08c379a000000000000000000000000000000000000000000000000000000000815260040161173b90613039565b60405180910390fd5b806006600084815260200190815260200160002090816117649190612a9d565b507ff8e1a15aba9398e019f0b49df1a4fde98ee17ae345cb5f6b5e2c27f5033e8ce782604051611794919061247e565b60405180910390a15050565b60006002600083815260200190815260200160002060009054906101000a900473ffffffffffffffffffffffffffffffffffffffff169050919050565b6000600760009054906101000a900473ffffffffffffffffffffffffffffffffffffffff16905081600760006101000a81548173ffffffffffffffffffffffffffffffffffffffff021916908373ffffffffffffffffffffffffffffffffffffffff1602179055508173ffffffffffffffffffffffffffffffffffffffff168173ffffffffffffffffffffffffffffffffffffffff167f8be0079c531659141344cd1fd0a4f28419497f9722a3daafe3b4186f6b6457e060405160405180910390a35050565b8173ffffffffffffffffffffffffffffffffffffffff168373ffffffffffffffffffffffffffffffffffffffff1603611911576040517f08c379a0000000000000000000000000000000000000000000000000000000008152600401611908906130a5565b60405180910390fd5b80600560008573ffffffffffffffffffffffffffffffffffffffff1673ffffffffffffffffffffffffffffffffffffffff16815260200190815260200160002060008473ffffffffffffffffffffffffffffffffffffffff1673ffffffffffffffffffffffffffffffffffffffff16815260200190815260200160002060006101000a81548160ff0219169083151502179055508173ffffffffffffffffffffffffffffffffffffffff168373ffffffffffffffffffffffffffffffffffffffff167f17307eab39ab6107e8899845ad3d59bd9653f200f220920489ca2b5937696c3183604051611a029190612020565b60405180910390a3505050565b611a1a848484611144565b611a2684848484611ba1565b611a65576040517f08c379a0000000000000000000000000000000000000000000000000000000008152600401611a5c90613137565b60405180910390fd5b50505050565b606060405180602001604052806000815250905090565b6060611a8d82610fa3565b6000611a97611a6b565b90506000815111611ab75760405180602001604052806000815250611ae2565b80611ac184611d28565b604051602001611ad2929190612ca9565b6040516020818303038152906040525b915050919050565b60007f01ffc9a7000000000000000000000000000000000000000000000000000000007bffffffffffffffffffffffffffffffffffffffffffffffffffffffff1916827bffffffffffffffffffffffffffffffffffffffffffffffffffffffff1916149050919050565b60008073ffffffffffffffffffffffffffffffffffffffff16611b76836117a0565b73ffffffffffffffffffffffffffffffffffffffff1614159050919050565b50505050565b50505050565b6000611bc28473ffffffffffffffffffffffffffffffffffffffff16611df6565b15611d1b578373ffffffffffffffffffffffffffffffffffffffff1663150b7a02611beb610fee565b8786866040518563ffffffff1660e01b8152600401611c0d94939291906131ac565b6020604051808303816000875af1925050508015611c4957506040513d601f19601f82011682018060405250810190611c46919061320d565b60015b611ccb573d8060008114611c79576040519150601f19603f3d011682016040523d82523d6000602084013e611c7e565b606091505b506000815103611cc3576040517f08c379a0000000000000000000000000000000000000000000000000000000008152600401611cba90613137565b60405180910390fd5b805181602001fd5b63150b7a0260e01b7bffffffffffffffffffffffffffffffffffffffffffffffffffffffff1916817bffffffffffffffffffffffffffffffffffffffffffffffffffffffff191614915050611d20565b600190505b949350505050565b606060006001611d3784611e19565b01905060008167ffffffffffffffff811115611d5657611d55612275565b5b6040519080825280601f01601f191660200182016040528015611d885781602001600182028036833780820191505090505b509050600082602001820190505b600115611deb578080600190039150507f3031323334353637383961626364656600000000000000000000000000000000600a86061a8153600a8581611ddf57611dde61323a565b5b04945060008503611d96575b819350505050919050565b6000808273ffffffffffffffffffffffffffffffffffffffff163b119050919050565b600080600090507a184f03e93ff9f4daa797ed6e38ed64bf6a1f0100000000000000008310611e77577a184f03e93ff9f4daa797ed6e38ed64bf6a1f0100000000000000008381611e6d57611e6c61323a565b5b0492506040810190505b6d04ee2d6d415b85acef81000000008310611eb4576d04ee2d6d415b85acef81000000008381611eaa57611ea961323a565b5b0492506020810190505b662386f26fc100008310611ee357662386f26fc100008381611ed957611ed861323a565b5b0492506010810190505b6305f5e1008310611f0c576305f5e1008381611f0257611f0161323a565b5b0492506008810190505b6127108310611f31576127108381611f2757611f2661323a565b5b0492506004810190505b60648310611f545760648381611f4a57611f4961323a565b5b0492506002810190505b600a8310611f63576001810190505b80915050919050565b6000604051905090565b600080fd5b600080fd5b60007fffffffff0000000000000000000000000000000000000000000000000000000082169050919050565b611fb581611f80565b8114611fc057600080fd5b50565b600081359050611fd281611fac565b92915050565b600060208284031215611fee57611fed611f76565b5b6000611ffc84828501611fc3565b91505092915050565b60008115159050919050565b61201a81612005565b82525050565b60006020820190506120356000830184612011565b92915050565b600081519050919050565b600082825260208201905092915050565b60005b8381101561207557808201518184015260208101905061205a565b60008484015250505050565b6000601f19601f8301169050919050565b600061209d8261203b565b6120a78185612046565b93506120b7818560208601612057565b6120c081612081565b840191505092915050565b600060208201905081810360008301526120e58184612092565b905092915050565b6000819050919050565b612100816120ed565b811461210b57600080fd5b50565b60008135905061211d816120f7565b92915050565b60006020828403121561213957612138611f76565b5b60006121478482850161210e565b91505092915050565b600073ffffffffffffffffffffffffffffffffffffffff82169050919050565b600061217b82612150565b9050919050565b61218b81612170565b82525050565b60006020820190506121a66000830184612182565b92915050565b6121b581612170565b81146121c057600080fd5b50565b6000813590506121d2816121ac565b92915050565b600080604083850312156121ef576121ee611f76565b5b60006121fd858286016121c3565b925050602061220e8582860161210e565b9150509250929050565b60008060006060848603121561223157612230611f76565b5b600061223f868287016121c3565b9350506020612250868287016121c3565b92505060406122618682870161210e565b9150509250925092565b600080fd5b600080fd5b7f4e487b7100000000000000000000000000000000000000000000000000000000600052604160045260246000fd5b6122ad82612081565b810181811067ffffffffffffffff821117156122cc576122cb612275565b5b80604052505050565b60006122df611f6c565b90506122eb82826122a4565b919050565b600067ffffffffffffffff82111561230b5761230a612275565b5b61231482612081565b9050602081019050919050565b82818337600083830152505050565b600061234361233e846122f0565b6122d5565b90508281526020810184848401111561235f5761235e612270565b5b61236a848285612321565b509392505050565b600082601f8301126123875761238661226b565b5b8135612397848260208601612330565b91505092915050565b600080600080600060a086880312156123bc576123bb611f76565b5b60006123ca888289016121c3565b955050602086013567ffffffffffffffff8111156123eb576123ea611f7b565b5b6123f788828901612372565b945050604086013567ffffffffffffffff81111561241857612417611f7b565b5b61242488828901612372565b93505060606124358882890161210e565b925050608086013567ffffffffffffffff81111561245657612455611f7b565b5b61246288828901612372565b9150509295509295909350565b612478816120ed565b82525050565b6000602082019050612493600083018461246f565b92915050565b600060608201905081810360008301526124b38186612092565b90506124c2602083018561246f565b81810360408301526124d48184612092565b9050949350505050565b6000602082840312156124f4576124f3611f76565b5b6000612502848285016121c3565b91505092915050565b61251481612005565b811461251f57600080fd5b50565b6000813590506125318161250b565b92915050565b6000806040838503121561254e5761254d611f76565b5b600061255c858286016121c3565b925050602061256d85828601612522565b9150509250929050565b600067ffffffffffffffff82111561259257612591612275565b5b61259b82612081565b9050602081019050919050565b60006125bb6125b684612577565b6122d5565b9050828152602081018484840111156125d7576125d6612270565b5b6125e2848285612321565b509392505050565b600082601f8301126125ff576125fe61226b565b5b813561260f8482602086016125a8565b91505092915050565b6000806000806080858703121561263257612631611f76565b5b6000612640878288016121c3565b9450506020612651878288016121c3565b93505060406126628782880161210e565b925050606085013567ffffffffffffffff81111561268357612682611f7b565b5b61268f878288016125ea565b91505092959194509250565b600080604083850312156126b2576126b1611f76565b5b60006126c0858286016121c3565b92505060206126d1858286016121c3565b9150509250929050565b7f4e487b7100000000000000000000000000000000000000000000000000000000600052602260045260246000fd5b6000600282049050600182168061272257607f821691505b602082108103612735576127346126db565b5b50919050565b7f4552433732313a20617070726f76616c20746f2063757272656e74206f776e6560008201527f7200000000000000000000000000000000000000000000000000000000000000602082015250565b6000612797602183612046565b91506127a28261273b565b604082019050919050565b600060208201905081810360008301526127c68161278a565b9050919050565b7f4552433732313a20617070726f76652063616c6c6572206973206e6f7420746f60008201527f6b656e206f776e6572206f7220617070726f76656420666f7220616c6c000000602082015250565b6000612829603d83612046565b9150612834826127cd565b604082019050919050565b600060208201905081810360008301526128588161281c565b9050919050565b7f4552433732313a2063616c6c6572206973206e6f7420746f6b656e206f776e6560008201527f72206f7220617070726f76656400000000000000000000000000000000000000602082015250565b60006128bb602d83612046565b91506128c68261285f565b604082019050919050565b600060208201905081810360008301526128ea816128ae565b9050919050565b60008190508160005260206000209050919050565b60006020601f8301049050919050565b600082821b905092915050565b6000600883026129537fffffffffffffffffffffffffffffffffffffffffffffffffffffffffffffffff82612916565b61295d8683612916565b95508019841693508086168417925050509392505050565b6000819050919050565b600061299a612995612990846120ed565b612975565b6120ed565b9050919050565b6000819050919050565b6129b48361297f565b6129c86129c0826129a1565b848454612923565b825550505050565b600090565b6129dd6129d0565b6129e88184846129ab565b505050565b5b81811015612a0c57612a016000826129d5565b6001810190506129ee565b5050565b601f821115612a5157612a22816128f1565b612a2b84612906565b81016020851015612a3a578190505b612a4e612a4685612906565b8301826129ed565b50505b505050565b600082821c905092915050565b6000612a7460001984600802612a56565b1980831691505092915050565b6000612a8d8383612a63565b9150826002028217905092915050565b612aa68261203b565b67ffffffffffffffff811115612abf57612abe612275565b5b612ac9825461270a565b612ad4828285612a10565b600060209050601f831160018114612b075760008415612af5578287015190505b612aff8582612a81565b865550612b67565b601f198416612b15866128f1565b60005b82811015612b3d57848901518255600182019150602085019450602081019050612b18565b86831015612b5a5784890151612b56601f891682612a63565b8355505b6001600288020188555050505b505050505050565b7f4552433732313a20696e76616c696420746f6b656e2049440000000000000000600082015250565b6000612ba5601883612046565b9150612bb082612b6f565b602082019050919050565b60006020820190508181036000830152612bd481612b98565b9050919050565b7f4552433732313a2061646472657373207a65726f206973206e6f74206120766160008201527f6c6964206f776e65720000000000000000000000000000000000000000000000602082015250565b6000612c37602983612046565b9150612c4282612bdb565b604082019050919050565b60006020820190508181036000830152612c6681612c2a565b9050919050565b600081905092915050565b6000612c838261203b565b612c8d8185612c6d565b9350612c9d818560208601612057565b80840191505092915050565b6000612cb58285612c78565b9150612cc18284612c78565b91508190509392505050565b7f4f776e61626c653a206e6577206f776e657220697320746865207a65726f206160008201527f6464726573730000000000000000000000000000000000000000000000000000602082015250565b6000612d29602683612046565b9150612d3482612ccd565b604082019050919050565b60006020820190508181036000830152612d5881612d1c565b9050919050565b7f4552433732313a207472616e736665722066726f6d20696e636f72726563742060008201527f6f776e6572000000000000000000000000000000000000000000000000000000602082015250565b6000612dbb602583612046565b9150612dc682612d5f565b604082019050919050565b60006020820190508181036000830152612dea81612dae565b9050919050565b7f4552433732313a207472616e7366657220746f20746865207a65726f2061646460008201527f7265737300000000000000000000000000000000000000000000000000000000602082015250565b6000612e4d602483612046565b9150612e5882612df1565b604082019050919050565b60006020820190508181036000830152612e7c81612e40565b9050919050565b7f4f776e61626c653a2063616c6c6572206973206e6f7420746865206f776e6572600082015250565b6000612eb9602083612046565b9150612ec482612e83565b602082019050919050565b60006020820190508181036000830152612ee881612eac565b9050919050565b7f4552433732313a206d696e7420746f20746865207a65726f2061646472657373600082015250565b6000612f25602083612046565b9150612f3082612eef565b602082019050919050565b60006020820190508181036000830152612f5481612f18565b9050919050565b7f4552433732313a20746f6b656e20616c7265616479206d696e74656400000000600082015250565b6000612f91601c83612046565b9150612f9c82612f5b565b602082019050919050565b60006020820190508181036000830152612fc081612f84565b9050919050565b7f45524337323155524953746f726167653a2055524920736574206f66206e6f6e60008201527f6578697374656e7420746f6b656e000000000000000000000000000000000000602082015250565b6000613023602e83612046565b915061302e82612fc7565b604082019050919050565b6000602082019050818103600083015261305281613016565b9050919050565b7f4552433732313a20617070726f766520746f2063616c6c657200000000000000600082015250565b600061308f601983612046565b915061309a82613059565b602082019050919050565b600060208201905081810360008301526130be81613082565b9050919050565b7f4552433732313a207472616e7366657220746f206e6f6e20455243373231526560008201527f63656976657220696d706c656d656e7465720000000000000000000000000000602082015250565b6000613121603283612046565b915061312c826130c5565b604082019050919050565b6000602082019050818103600083015261315081613114565b9050919050565b600081519050919050565b600082825260208201905092915050565b600061317e82613157565b6131888185613162565b9350613198818560208601612057565b6131a181612081565b840191505092915050565b60006080820190506131c16000830187612182565b6131ce6020830186612182565b6131db604083018561246f565b81810360608301526131ed8184613173565b905095945050505050565b60008151905061320781611fac565b92915050565b60006020828403121561322357613222611f76565b5b6000613231848285016131f8565b91505092915050565b7f4e487b7100000000000000000000000000000000000000000000000000000000600052601260045260246000fdfea26469706673582212209ed6adce8752d2c0f5a1ab102bd8394056b7f4fe71be26d912d3621b03d90a0464736f6c63430008120033",
    "linkReferences": {},
    "deployedLinkReferences": {}
}